:020000040800F2
:10000000600500200101000847210008731C00085A
:10001000452100085F040008B52900080000000021
:10002000000000000000000000000000C9240008DB
:10003000610400080000000031240008CB240008FF
:100040001B0100081B0100081B0100081B01000820
:100050001B0100081B0100081B0100081B01000810
:100060001B0100081B0100081B0100081B01000800
:100070001B0100081B0100081B0100081B010008F0
:100080001B0100081B0100081B0100081B010008E0
:100090001B0100081B0100081B0100081B010008D0
:1000A0001B0100081B0100081B0100081B010008C0
:1000B000312500081B0100081B0100081B01000876
:1000C0001B0100081B0100081B0100081B010008A0
:1000D0001B010008A92900081B0100081B010008DA
:1000E0001B0100081B0100081B010008DFF80CD0F1
:1000F00000F094F900480047A52A00086005002098
:100100000648804706480047FEE7FEE7FEE7FEE7B1
:10011000FEE7FEE7FEE7FEE7FEE7FEE72D25000827
:10012000ED000008202A04DB203A21FA02F0002129
:10013000704721FA02F3D040C2F1200291400843F7
:1001400019467047D2B201E000F8012B491EFBD2DC
:1001500070470022F6E710B513460A4604461946D2
:10016000FFF7F0FF204610BD2DE9FE4F81EA0304A2
:1001700004F0004421F0004100944FF0000B23F004
:10018000004350EA01045ED052EA03045BD0C3F39B
:100190000A54C1F30A552C44A4F2F3340194A0FB91
:1001A0000254C1F3130141F48011C3F3130343F468
:1001B000801301FB024400FB034E840A970A44EAC1
:1001C000815447EA8357A4FB076802958D0A05FB13
:1001D00007854FEA932C04FB0C542705029D4FEA38
:1001E000065847EA1637B5EB08056EEB070C870E85
:1001F000920E47EA811742EA8312A7FB0201B6EB8F
:100200000B0164EB00042B0D43EA0C335E1844EB46
:100210001C50DA465146E7FB0201C5F313044FEACE
:100220000B3343EA14534FEA0432019C43EA0603BA
:10023000A4F10C040294009CCDE900B400F0A0F8F5
:1002400003B0BDE8F08F00200146F9E770B521F05A
:10025000004303430CD0C1F30A550024D5EB040539
:1002600064EB0403D617AD1AB34102DB002001464C
:1002700070BD201841EB025170BD0EB540F2334104
:1002800002910021CDE900110A460B4600F078F8F2
:1002900003B000BD20F00040C10DC0F3160040F4D3
:1002A00000007F2901DA00207047962903DCC1F1A4
:1002B0009601C840704796398840704701F0004366
:1002C00030B421F0004150EA010206D00A0DA2F537
:1002D0006072C1F31301002A02DC30BC00207047B9
:1002E000440F44EAC104C100E01830BC00EBC25026
:1002F000AFF300800029A8BF7047401C490008BF29
:1003000020F00100704710B4B0FA80FC00FA0CF045
:1003100050EA010404BF10BC704749B1CCF120047D
:1003200021FA04F411FA0CF118BF0121214308430A
:10033000A3EB0C01CB1D4FEA00614FEA102042BF36
:10034000002010BC704700EBC35010440029A4BF2C
:1003500010BC7047401C490008BF20F0010010BCD1
:10036000704710B5141E73F1000408DA401C41F107
:10037000000192185B411A4301D120F0010010BD29
:100380002DE9F04D92469B4611B1B1FA81F202E09F
:10039000B0FA80F22032904600F052F804460F4640
:1003A00040EA0A0041EA0B0153465A46084313D07B
:1003B000114653EA010019D0C8F140025046FFF738
:1003C000B1FE05460E4650465946424600F038F802
:1003D000084305D0012004E020463946BDE8F08DF1
:1003E0000020054346EAE0762C4337430A9863052C
:1003F000E40AA0EB08000022FD0A44EA47540A3050
:1004000002D500200146E9E7010510196941DDE93F
:10041000084500196941BDE8F04DA2E7064C074DBB
:1004200006E0E06840F0010394E8070098471034C4
:10043000AC42F6D3FFF75EFE1034000830340008FB
:10044000202A04DB203A00FA02F100207047914094
:10045000C2F1200320FA03F3194390407047FEE7EE
:10046000704772B6FEE710B590F8211000220229FD
:1004700005D00421816380F82020012010BD01688F
:100480000B6823F00E030B6001680B6823F0010377
:100490000B6090F84030C46B012101FA03F36360F4
:1004A00080F8211080F82020104610BD10B590F87B
:1004B00021100024022903D00421816301243DE09E
:1004C00001680A6822F00E020A6001680A6822F0D8
:1004D00001020A601A4A0168914201D1012121E01A
:1004E000174A1432914201D110211BE0144A2832DC
:1004F000914201D1891515E0114A3C32914201D156
:1005000089140FE00E4A5032914202D14FF48031EB
:1005100008E00B4A6432914202D14FF4801101E0AD
:100520004FF08071064A083A5160012180F821108D
:10053000002180F82010416B01B18847204610BD92
:100540000800024070B5044600F004F90546601C3E
:1005500002D004480078044400F0FCF8401BA0429C
:10056000FAD370BD140000202DE9F84FDFF8B891E0
:100570000024A9F1040B23460F2709F1040AABF16B
:10058000040EC9E00125A5402A40AA427DD1674E4C
:10059000D1F804C0ACEB0608B44532D014DCBCF191
:1005A000030F3AD009DCBCF1000F2AD0BCF1010FD7
:1005B0001CD0BCF1020F31D11DE0BCF1110F17D0DE
:1005C000BCF1120F2AD119E0B8F5881F19D006DC4A
:1005D000B8F5803F15D0B8F5801F1FD111E0B8F5F0
:1005E000001F0ED0B8F5041F18D10AE0CB6815E043
:1005F000CB681B1D12E0CB6808330FE0CB680C33CF
:100600000CE08B682BB1012B4FF0080303D0456140
:1006100004E0042302E0056100E00023FF2A01D882
:10062000064601E000F104064FEA840501D9A5F170
:100630002005D6F8008007FA05FC28EA0C0803FA22
:1006400005F548EA0508C6F800804D68ED0062D55A
:10065000374DAE6946F00106AE61AD6924F0030680
:1006600005F001050095334D06EB050CDCF808504C
:10067000A607360F07FA06F825EA0805DFF8B8805E
:10068000404503D14FF0000817E044E0DFF8AC80AC
:10069000404502D14FF001080FE0DFF8A48040454B
:1006A00002D14FF0020808E0DFF89880404502D1FF
:1006B0004FF0030801E04FF0040808FA06F848EA92
:1006C0000508CCF808804D68D9F80060ED024D4669
:1006D00001D5164300E096432E604D68DAF80060BD
:1006E000AD02554601D5164300E096432E604D6895
:1006F000DBF80060AD035D4601D5164300E096438C
:100700002E604D68DEF80060ED03754601D5164396
:1007100000E096432E60641C0D682A46E5407FF495
:1007200031AFBDE8F88F000008040140000011104F
:10073000001002400000014000080140000C014090
:1007400000100140001401400AB101617047090422
:10075000FBE700000148806870470000140000209B
:1007600070B5040025D094F83D00002520B984F828
:100770003C50204600F050F9242084F83D002068C9
:10078000016821F0010101602068016841F4004125
:1007900001602068016821F40041016000F0A0FAC6
:1007A0004D4A6168914201D84C4900E04C49884269
:1007B00001D2012070BD4B492368B0FBF1F15E68A6
:1007C00026F03F060E435E606368934206D94FF4FD
:1007D000967359434FF47A73B1FBF3F12368491CC4
:1007E0001E6A26F03F06314319626168914210D8B3
:1007F0004900401EB0FBF1F2521CC2F30B02042A66
:1008000001D2042022E0B0FBF1F0401CC0F30B0049
:100810001CE0A268F2B301EBC10303EB0116431E17
:10082000B3FBF6F35B1C43F480431B0549D092B342
:1008300001EBC10202EB0111401EB0FBF1F0401CC4
:10084000C0F30B0040F4804040F400402168CA69C6
:100850004CF6FF739A431043C861D4E90710014373
:100860002068026822F0C00211430160D4E903014C
:1008700001432068826848F2FF339A431143816044
:10088000D4E9050108432168CA6822F0FF02104339
:10089000C86001E00EE016E02068016841F0010147
:1008A00001602564202084F83D00256384F83E50D3
:1008B000002070BD01EB4106431EB3FBF6F35B1C49
:1008C000B3E70120C2E701EB4101401EB0FBF1F0AC
:1008D000401CC0F30B00B7E7A086010080841E0017
:1008E00000093D0040420F002DE9FF4F83B09A46BA
:1008F000DDE9119793460446DDF84080FFF72AFFB3
:10090000054694F83D0020287FD119230122404953
:100910002046009501F046FA002876D194F83C0074
:10092000012872D0012084F83C0020680168C907C2
:1009300003D1016841F0010101602068016821F4E0
:1009400000610160212084F83D00402084F83E00D1
:1009500000262664C4F82480A4F82A90608D20859F
:100960002C48E062CDE9007553465A46204604996A
:1009700001F098F970B930E02A463946204601F076
:10098000B7FA58B1206C042804D12068016841F4FA
:1009900000710160012007B0BDE8F08F606A216836
:1009A00000780861606A401C6062218D491E89B22E
:1009B0002185628D521E628522685369DB435B0785
:1009C0000BD469B100781061606A401C6062208DB0
:1009D000401E2085608D401E6085208D0028CBD173
:1009E0002A463946204601F0B1F90028CAD154F808
:1009F0003D0B016841F400710160202004F81E09DC
:100A0000E67766770020C6E7FFE70220C3E700002D
:100A1000020010000000FFFF10B586B00021009119
:100A20000191029103910068104988421BD1104C3A
:100A3000A06940F00800A061A069694600F00800C4
:100A400004904FF440600090122001900320039026
:100A50000848FFF789FDE06940F48000E061E06943
:100A600000F48000049006B010BD00000058004063
:100A700000100240000C01400248816802781144D5
:100A80008160704714000020074810B5016841F0EC
:100A900010010160032000F075F80F2000F006F847
:100AA00000F024F8002010BD0020024070B50D4D6C
:100AB00004464FF47A712878B1FBF0F00A490968CE
:100AC000B1FBF0F000F0E2FA48B9102C07D2002296
:100AD0002146501E00F036F800206C6070BD0120E9
:100AE00070BD000014000020200000200C4808B554
:100AF000816941F001018161816901F00101009189
:100B0000C16941F08051C161C06900F0805000901E
:100B10000448416821F0E06141F08061416008BD16
:100B20000010024000000140002809DB00F01F0215
:100B3000012191404009800000F1E020C0F800113F
:100B400070470000F0B40E4B1B680C46C3F3022341
:100B5000C3F10705042D00D90425191D072901D269
:100B6000002300E0DB1E012606FA05F1491E2140A4
:100B700099409E40761E16403143F0BC01F048BFBC
:100B80000CED00E0064900F0070208684FF6FF038D
:100B9000184040EA0220034A1043086070470000F2
:100BA0000CED00E00000FA052DE9F0470F460500C6
:100BB00061D0434E306800F00700B84209D2306877
:100BC00020F0070038433060306800F00700B8427A
:100BD00051D128683B4C810712D5400703D5606886
:100BE00040F4E06060602878000703D5606840F456
:100BF000605060606068A96820F0F00008436060A1
:100C00002878C00728D06868012810D021680228F9
:100C100010D0890700292EDA616821F00301014311
:100C20006160FFF797FD804641F288390DE0216849
:100C30008903EFE78901EDE7FFF78CFDA0EB0801E1
:100C4000494502D90320BDE8F0876068696800F073
:100C50000C00B0EB810FEFD1306800F00700B84214
:100C60000BD9306820F0070038433060306800F05E
:100C70000700B84201D00120E5E72878400705D5F4
:100C80006068E96820F4E060084360602878000745
:100C900006D56068296920F4605040EAC1006060B0
:100CA00000F03EF86168084AC1F30311515CC84086
:100CB0000649086006480068FFF7F8FE0020C2E712
:100CC0000020024000100240F633000820000020FF
:100CD0001800002001480068704700002000002034
:100CE0000448054900684968044AC1F30221515C7F
:100CF000C840704720000020001002400634000861
:100D00000448054900684968044AC1F3C221515C9E
:100D1000C840704720000020001002400634000840
:100D20000E4A51680E4801F00C03042B11D0082B19
:100D30000FD10C48C1F38343C903C05C0AD5516885
:100D4000084AC1F34041921E515C054A5043B0FB32
:100D5000F1F070470449484370470000001002401A
:100D600000127A00E633000800093D002DE9F84F33
:100D7000040070D02078C04DC00749D06868C0F327
:100D80008100012807D06868C0F38100022809D1DA
:100D90006868C00306D52868800339D560680028D4
:100DA000E7D035E06068B0F5803F0BD010B1B0F50A
:100DB000A02F11D0286820F480302860286820F403
:100DC000802002E0286840F480302860606890B19C
:100DD000FFF7C0FC06460AE0286840F4802028603F
:100DE000F0E700BFFFF7B6FC801B642873D82868C3
:100DF0008003F7D50CE0FFF7ADFC064605E000BF29
:100E0000FFF7A8FC801B6428F0D828688003F7D47B
:100E100020789A4E80074FF001094FF0000839D52D
:100E2000686810F00C0F07D06868C0F381000228D2
:100E300009D16868C00306D42868800714D52069E2
:100E4000012808D110E02069B0B1C6F80090FFF782
:100E500081FC074605E00AE1FFF77CFCC01B022885
:100E6000C4D828688007F7D52868616920F0F800A1
:100E700040EAC10028600DE0C6F80080FFF76AFC78
:100E8000074604E0FFF766FCC01B022823D8286849
:100E90008007F7D4207800072CD57948A169D9B10B
:100EA000C0F80090FFF756FC074604E0FFF752FC3D
:100EB000C01B02280FD8686A8007F7D571484FF425
:100EC000FA510068B0FBF1F0009000BF0098411E9D
:100ED0000091FAD20EE080E0C0F80080FFF73AFC03
:100EE000074604E0FFF736FCC01B022875D8686A85
:100EF0008007F7D42078400760D5E8690027C00054
:100F000008D4E86940F08050E861E869012700F002
:100F1000805000905C480168C90513D4016883467D
:100F200041F480710160FFF715FC824606E000BFC6
:100F3000FFF710FCA0EB0A0064284ED8DBF8000095
:100F4000C005F5D5E06801280AD008B1052813D0FE
:100F5000286A20F001002862286A20F0040002E0DC
:100F6000286A40F001002862E06841F2883B98B1AD
:100F7000FFF7F0FB82460BE0286A40F0040028628D
:100F8000EEE700BFFFF7E6FBA0EB0A0159455AD890
:100F9000286A8007F6D50CE0FFF7DCFB824605E007
:100FA000FFF7D8FBA0EB0A0159454CD8286A800707
:100FB000F6D41FB1E86920F08050E861E06988B399
:100FC0006968C1F38101022944D00228C6F8608013
:100FD00004D0FFF7BFFB044638E034E0FFF7BAFB6C
:100FE000074604E0FFF7B6FBC01B02282BD8286891
:100FF0008001F7D4206AB0F5803F05D16868A16808
:1010000020F4003008436860D4E9080108436968A7
:1010100021F4741108436860C6F86090FFF79AFBEA
:10102000044606E025E000BFFFF794FB001B022802
:1010300009D828688001F7D51BE000BFFFF78AFBBD
:10104000001B022802D90320BDE8F88F2868800120
:10105000F4D40EE00128F7D06868226A00F48031E9
:10106000914204D1616A00F47010884201D00120DD
:10107000EAE70020E8E700000010024000004242DA
:1010800080044242200000200070004010B5401E45
:10109000B0F1807F01D3012010BD4FF0E0246061EA
:1010A0000F21601701F0B4FC0020A061072020612F
:1010B000002010BD7047704770B590F83C20012AA1
:1010C00026D0012480F83C40022280F83D200368AD
:1010D0005A689D6822F070060A6832435A600D4BC8
:1010E00002689A4208D0B2F1804F05D00A4B9A426A
:1010F00002D00A4B9A4204D1496825F08003194373
:10110000916080F83D40002180F83C10084670BD99
:10111000022070BD002C0140000400400008004087
:1011200070B50068B0F1804F12D1124C124D20788A
:1011300001280ED002280BD10021104800F09DFBA1
:10114000686000210D4800F07DF92078401C207077
:1011500070BD0021094800F090FB28600748016835
:101160000A6A22F00A020A620068016A41F002017A
:101170000162EAE708000020540100207C00002002
:101180002DE9F041054690F83C0000260C46012868
:1011900010D0012085F83C0072B1042A1CD0082A26
:1011A0002CD00C2A50D00126002085F83C00304677
:1011B000BDE8F0810220FBE7D4E90012E36828686B
:1011C00001F0A2FA2868816921F00C018161286888
:1011D0008169A26811430FE0D4E90012E36828682E
:1011E00001F0BEFA2868816921F4406181612868B4
:1011F0008169A26841EA02218161D5E72868D4E9C2
:10120000002C277B036A016A21F480710162C169A5
:1012100023F4007321F0030141EA0C0121F0F00CEA
:1012200039074FF400774CEA116107EA02221A43AA
:10123000C16102622868C16921F00C01C16128689E
:10124000C169A26811432BE02868D4E90021E7684E
:10125000036AD0F820C02CF4805CC0F820C0D0F81D
:101260001CC023F400532CF4407C4CEA012121F4EF
:10127000704C4FF6FF7101EA07314FF4005741EA15
:101280000C0107EA02321A43C16102622868C1698F
:1012900021F44061C1612868C169A26841EA022164
:1012A000C16181E710B5040003D094F83D0010B18E
:1012B00007E0012010BD002084F83C00204600F02B
:1012C0001FF8022084F83D00211D206801F036F946
:1012D000012084F8460084F83E0084F83F0084F83A
:1012E000400084F8410084F8420084F8430084F808
:1012F000440084F8450084F83D00002010BD000043
:1013000000B585B000210091019102910391006820
:10131000B0F1804F1ED11048C16941F00101C16197
:10132000C16901F001010491816941F00401816109
:101330008069694600F0040004900120009007488D
:10134000FFF712F9002211461C20FFF7FBFB1C20BF
:10135000FFF7EAFB05B000BD0010024000080140A5
:1013600030B50446002551B104290DD0082910D00C
:1013700094F8410094F84520012811D10EE094F82A
:101380003E0094F84220F7E794F83F0094F8432099
:10139000F2E794F8400094F84420EDE7012A01D0E8
:1013A000012030BD022059B1042912D0082919D0DA
:1013B00084F8410084F845000C2938D0012534E038
:1013C00084F83E0084F842002068C26842F00202BD
:1013D00010E084F83F0084F843002068C26842F0BF
:1013E000040207E084F8400084F844002068C268E2
:1013F00042F00802C2600122206801F0D5F80E49CF
:101400002068884208D0B0F1804F05D00B4988424F
:1014100002D00B49884204D1816801F007010629F6
:1014200003D0016841F001010160284630BD206809
:10143000C26842F01002DDE7002C014000040040C9
:101440000008004070B50D0004464FF0000607D0BC
:10145000042D0AD0082D0DD00C2D10D001262FE020
:101460002068C16821F002010DE02068C16821F008
:10147000040108E02068C16821F0080103E0206849
:10148000C16821F01001C16000222946206801F0E6
:101490008BF82068016A41F21112114207D1016AEA
:1014A0009210114203D1016821F001010160012075
:1014B00045B1042D09D0082D0AD004F8410F207140
:1014C000304670BD04F83E0FF9E704F83F0FF6E729
:1014D00004F8400FF3E770B50446006801694FF067
:1014E0000005C943890715D4C168C943890711D4C8
:1014F000E91E01610120207720688069800720466D
:1015000002D0FFF70DFE04E000F0BEF8204600F028
:1015100063F9257720680169C943490717D4C16871
:10152000C943490713D46FF00401016102202077F9
:101530002068806910F4407F204602D0FFF7F0FD5C
:1015400004E000F0A1F8204600F046F92577206875
:101550000169C943090716D4C168C943090712D4F0
:101560006FF008010161042020772068C0698007BE
:10157000204602D0FFF7D4FD04E000F085F82046B5
:1015800000F02AF9257720680169C943C90617D4F4
:10159000C168C943C90613D46FF010010161082066
:1015A00020772068C06910F4407F204602D0FFF702
:1015B000B7FD04E000F068F8204600F00DF925774B
:1015C00020680169C943C90708D1C168C943C9076F
:1015D00004D1891E0161204600F04EF9206801699E
:1015E000C943090609D4C168C943090605D46FF087
:1015F000800101612046FFF75DFD20680169C94354
:10160000490609D4C168C943490605D46FF04001B1
:101610000161204600F046F920680169C943890646
:101620000BD4C168C943890607D46FF0200101615A
:101630002046BDE87040FFF73EBD70BD00B585B0E7
:101640000021009101910291039100680B498842A9
:1016500012D10B48816941F00801816180696946B6
:1016600000F0080004904FF40070009002200190F8
:1016700003900448FEF778FF05B000BD0008004065
:1016800000100240000C0140704770B5044690F80D
:101690003C0000260D4601280FD0012084F83C00B4
:1016A0006AB1042A1DD0082A2FD00C2A3FD0012667
:1016B000002084F83C00304670BD022070BD2068D8
:1016C00000F080FF2068816941F008018161206895
:1016D000816921F004018161206881692A691143CF
:1016E00011E0206800F096FF2068816941F40061F4
:1016F00081612068816921F480618161206881694C
:101700002A6941EA02218161D2E7206800F0AEFF38
:101710002068C16941F00801C1612068C16921F0F8
:101720000401C1612068C1692A69114311E0206880
:1017300000F0C8FF2068C16941F40061C161206800
:10174000C16921F48061C1612068C1692A6941EAE7
:101750000221C161ACE710B5040003D094F83D004C
:1017600010B107E0012010BD002084F83C002046A5
:1017700000F01EF8022084F83D00211D206800F0D2
:10178000DDFE012084F8460084F83E0084F83F0026
:1017900084F8400084F8410084F8420084F8430053
:1017A00084F8440084F8450084F83D00002010BD12
:1017B00008B500680649884208D10648C16941F069
:1017C0000401C161C06900F00400009008BD000080
:1017D00000080040001002407047000010B50446A9
:1017E000022249B104290ED0082913D094F84100EF
:1017F000012816D0012010BD94F83E000128F9D12F
:1018000084F83E200FE094F83F000128F2D184F8DC
:101810003F2008E094F840000128EBD184F84020F4
:1018200001E084F841200122206800F0BDFE0F494C
:101830002068884203D1426C42F40042426420682E
:10184000884208D0B0F1804F05D00949884202D0C3
:101850000849884204D1816801F00701062903D0B4
:10186000016841F001010160002010BD002C014021
:10187000000400400008004070470246002041B1CB
:10188000042909D008290AD00C2901D11068006C5C
:1018900070471068406B70471068806B7047106825
:1018A000C06B70477047704770470000F8B501681B
:1018B00004460868CA684B6910F00F0F4FF0000526
:1018C0005AD003F0010602F49077374365D0C10780
:1018D00005D0D10503D5616C41F001016164410778
:1018E00005D5D90703D0616C41F00201616481071D
:1018F00005D5D90703D0616C41F00401616401078B
:1019000007D502F02001314303D0616C41F008019A
:101910006164616C00293BD0800604D5900602D535
:10192000204600F067FF20684069616CC0F38010BA
:1019300001F00801014320462BD000F034FF20685D
:101940004069400621D52068143050E8001F21F07E
:10195000400140E80012002AF5D1E06BA8B16D49C2
:101960004163E06BFEF7A2FD002811D0E06B416BF4
:1019700001B0BDE8F040084783060ED593060CD5AC
:101980002046BDE8F84000F035BF2046FFF78CFF49
:10199000F8BDFFF789FF6564F8BD266B2023012E93
:1019A0007CD1C6067AD5D60678D5086848680090F6
:1019B00048694FF00206400640D5E16B0868406870
:1019C0000004000CE8D0A28D8242E5D9E085886948
:1019D00020282DD020680C3050E8001F21F48071A1
:1019E00040E80012002AF5D12168143151E8000FB7
:1019F00020F0010041E80002002AF5D120681430EF
:101A000050E8001F21F0400140E80012002AF5D103
:101A100084F84230256320680C3050E8001F21F024
:101A2000100140E80012002AF5D1E06BFEF71BFD23
:101A30006663A08DE18D401A81B22AE0A08DE18D10
:101A4000401A81B2E08D0028A6D00029A4D02268D7
:101A50000C3252E8000F20F4907042E80007002F8B
:101A6000F5D12068143050E8002F22F0010240E840
:101A70000027002FF5D184F84230256320680C3010
:101A800050E8002F22F0100240E80023002BF5D18F
:101A900066632046FFF707FFF8BDFFE705062BD575
:101AA000150629D594F841002128F5D1A068B0F594
:101AB000805F01D12069B0B1206A411C2162216898
:101AC00000784860E08C401E0004000CE084E3D104
:101AD0002068C16821F08001C1602068C16841F0C0
:101AE0004001C160D8E7206A0088C0F30800486060
:101AF000206A801C2062E5E74006CDD55006CBD594
:101B0000CA68204622F04002CA6084F8413000F0E2
:101B1000AFF8C1E79727000870B5040004D094F827
:101B20004100002510B106E0012070BD84F840504E
:101B3000204600F023F8242084F841002068C16882
:101B400021F40051C160204600F0B6FE2068016912
:101B500021F4904101612068416921F02A0141612D
:101B60002068C16841F40051C1606564202084F898
:101B7000410084F842006563002070BD30B585B037
:101B80000024009401940294039400681849884248
:101B90002CD11848816941F480418161816901F447
:101BA00080410491816941F0040181618069124D95
:101BB00000F0040004904FF40070009002200190A7
:101BC0000320039069462846FEF7CEFC2815CDE990
:101BD0000004694628460294FEF7C6FC002211461E
:101BE0002520FEF7AFFF2520FEF79EFF05B030BD94
:101BF00000380140001002400008014090F84230D7
:101C0000202B01D00220704721B11AB100230363B9
:101C100000F0AEBE0120704770B5006810498842E0
:101C200016D1104C4D14104E2078312806D10022C8
:101C300029463046FEF788FD012060702078322862
:101C400006D1012229463046FEF77EFD0220607053
:101C5000BDE87040012203490448FFF7CFBF0000F0
:101C60000038014000000020001001400C0100205D
:101C70007047FEE701684A69D24352050FD46FF4FA
:101C800080624A61002140F8301F20224273817334
:101C9000026942F0040202610173012070470020D2
:101CA000704700002DE9F843044600680D46DDE961
:101CB000089701689846164641F4807101604B46CA
:101CC00000224FF001112046009700F06BF848B158
:101CD00020680068C00502D54FF40070206403201E
:101CE000BDE8F883216805F0FE0008613B464A46DE
:101CF0001549204600F09EF888B92068416980693E
:101D000000903A464946204600F0F2F848B1206C6F
:101D1000042804D12068016841F4007101600120A9
:101D2000DEE7F5B2B8F1010F09D02168300A086189
:101D30003A464946204600F0DBF80028E7D1206803
:101D400005610020CCE700000200010070B51646D6
:101D50000D4604461EE02046FFF78CFF08B1012027
:101D600070BD681C16D0FEF7F5FC801BA84200D899
:101D700085B920684069C04340070BD5002044F86E
:101D8000300F20216173A073216941F0200121618E
:101D90002073E4E720684069C0434007DBD400209B
:101DA00070BD00002DE9F047984617460D460446E1
:101DB000C1F30746DDF820902AE000BFB8F1FF3FED
:101DC00026D0FEF7C7FCA0EB0901414502D8B8F1C7
:101DD000000F1DD12068012E16D0806925EA000071
:101DE0000004000C12D00020B84211D1002044F8A9
:101DF000300F20216173A073216941F0200121611E
:101E000020730120BDE8F0874069E7E70120EBE798
:101E10002068012E0AD0806925EA00000004000C29
:101E200006D00020B842C9D00020EBE74069F3E7B4
:101E30000120F7E72DE9F047984616460D4604467F
:101E40004FF000094FF0200AC1F3074723E0206854
:101E50004069C043400515D42068016841F4007111
:101E6000016021686FF480604861C4F8309084F8A4
:101E70003DA084F83E90216C41F00401216484F877
:101E80003C9021E0701C06D0FEF764FCA0EB08003B
:101E9000B04203D816B1012F1FD021E02068012FD6
:101EA00015D0806925EA00000004000C18D000BF9E
:101EB00044F8309F84F80DA084F80E90216941F019
:101EC0002001216184F80C900120BDE8F087406971
:101ED00025EA00000004000CEAD12068406901E016
:101EE0002068806925EA00000004000CAFD1ECE70F
:101EF00070B516460D4604461EE02046FFF7BAFEB2
:101F000008B1012070BD681C16D0FEF723FC801BB1
:101F1000A84200D885B920684069C04300060BD5A7
:101F2000002044F8300F20216173A073216941F033
:101F3000200121612073E4E720684069C043000666
:101F4000DBD4002070BD00002DE9F04186B00024F4
:101F500023480094019402940394816941F0100194
:101F60008161816901F010010491816941F02001D2
:101F70008161816901F020010491816941F00401CE
:101F80008161816901F004010491816941F00801D6
:101F900081618069012200F00800124F550304900E
:101FA00029463846FEF7D0FBDFF83C8000220221AC
:101FB0004046FEF7C9FB0126CDE9005602256946D9
:101FC0003846CDE90245FEF7CFFACDE9005669461D
:101FD0004046CDE90245FEF7C7FA06B0BDE8F081FC
:101FE0000010024000100140000801400D4810B5EB
:101FF0000B4901600C49416000214FF4804281602F
:10200000C0E9031241618161C1610162FEF7A8FB71
:10201000002803D0BDE81040FEF723BA10BD000031
:102020000058004028000020A086010010B586B0AE
:1020300000241848059404940094019402944FF0ED
:102040008041039401604721C0E901144FF6FF71FC
:10205000C0E903148461FFF725F908B1FEF701FA1E
:10206000049404A90B480594FFF726F808B1FEF77D
:10207000F8F90120CDE900400294002269460548A4
:102080000394FFF77DF8002801D0FEF7EAF906B0C7
:1020900010BD00007C00002010B58AB00024079419
:1020A0001C2168460894FEF754F81748154901604A
:1020B00040F2CF21C0E9011440F2CF71C0E903140E
:1020C0008461FFF748FB08B1FEF7CBF9079407A935
:1020D0000D480894FEF7F0FF08B1FEF7C2F9602042
:1020E000CDE9000402940C22694607480494FFF7E6
:1020F000CCFA08B1FEF7B5F90348FFF79FFA0AB02A
:1021000010BD000000080040C40000200C4810B5BD
:102110000A4901604FF4E1314160002181600C22E5
:10212000C160C0E904128161C161FFF7F5FC0028BC
:1021300003D0BDE81040FEF794B910BD003801404F
:102140000C010020FEE7FEE7002000F001B80000CF
:1021500070B506465FF0000404F1B000C0B200F0B4
:102160002BFC002000F028FC102000F025FC0025AE
:10217000304600F033FC6D1CEDB2802DF8D3641CAA
:10218000E4B2082CE8D370BD10B56420FEF7DAF98C
:10219000AE2000F011FC202000F00EFC102000F01A
:1021A0000BFCB02000F008FCC82000F005FC00206B
:1021B00000F002FC102000F0FFFB402000F0FCFBD0
:1021C000812000F0F9FBFF2000F0F6FBA12000F0D9
:1021D000F3FBA62000F0F0FBA82000F0EDFB3F2071
:1021E00000F0EAFBA42000F0E7FBD32000F0E4FBC2
:1021F000002000F0E1FBD52000F0DEFBF02000F035
:10220000DBFBD92000F0D8FB222000F0D5FBDA2040
:1022100000F0D2FB122000F0CFFBDB2000F0CCFB63
:10222000202000F0C9FB8D2000F0C6FB142000F038
:10223000C3FBBDE81040AF2000F0BEBB10B50446A4
:10224000B031C8B200F0B8FB102040EA141000F022
:10225000B3FB04F00F00BDE8104040F0010000F0B7
:10226000ABBB00002DE9F041203A00240D4680462A
:10227000D6B27F2803D900208D1C8046EDB2102BEA
:1022800029460FD0FFF7DAFF164906EB460001EBAF
:102290004005285D00F0A2FB641CE4B2062CF8D3D4
:1022A000BDE8F081FFF7CAFF0F4F00BF04EB061037
:1022B000385C00F093FB641CE4B2082CF6D36D1C70
:1022C000E9B24046FFF7BAFF5FF0000404EB0610E6
:1022D0003844007A00F082FB641CE4B2082CF5D389
:1022E000DEE70000CC2B0008F42D00082DE9F05F9C
:1022F0000026DDF828901D4692468B4680463446DF
:102300004FEA590723E0281B401EC1B20A2000F003
:1023100055FCBAFBF0F00A21B0FBF1F201FB120010
:1023200026B9691E8C4201DA38B101263030C2B2BA
:1023300007FB0480C0B24B4604E007FB0480C0B238
:102340004B4620225946FFF78DFF641CE4B2AC4295
:10235000D9D3BDE8F09F00002DE9F0470025914654
:102360008A460446012B22D0DFF8BC80022B24D100
:1023700055E02038C7B27E2C04D90AF101000024B0
:1023800000F0FF0A51462046FFF758FF07EB4700D1
:10239000002608EB4007B85D00F020FB761CF6B283
:1023A000062EF8D3A41D6D1CE4B2EDB201E0DFF8F7
:1023B0007C8019F805000028DBD1BDE8F0872038C3
:1023C000C7B2782C04D90AF10100002400F0FF0AFA
:1023D00051462046FFF732FF5FF0000606EB07117B
:1023E00018F8010000F0FAFA761CF6B2082EF5D3C0
:1023F0000AF10100C1B22046FFF720FF5FF000069E
:1024000006EB071101EB0800007A00F0E7FA761CF2
:10241000F6B2082EF4D308346D1CE4B2EDB219F80C
:1024200005000028CBD1C8E7F42D0008CC2B00080C
:102430007047000070B51E4C207810B1032835D1CC
:102440001EE01C4D012202212846FEF77DF91E20C8
:1024500000F00EFB002202212846FEF775F92078D5
:10246000401C2070144801680A6A22F00A020A62BD
:102470000068016A016200210F48FEF771FF15E054
:102480000E4803C8081AA060FDF7F7FE0C4A0D4B72
:10249000FDF76AFE4FF0FF32FDF7D8FEFDF70EFFA5
:1024A000606000204FF0804120704862606870BD1D
:1024B00008000020000801407C000020540100209A
:1024C0009CC420B07268A13F7047FEF7D5BA30B502
:1024D0008FB028216846FDF73CFE14210AA8FDF7BD
:1024E00038FE01210804CDE90010002402940225E1
:1024F0000491CDE907504FF4E01009906846FEF7CB
:1025000035FC08B172B6FEE70F20CDE90A054FF49D
:102510008060CDE90C4002210AA80E94FEF744FB2E
:10252000002801D072B6FEE70FB030BD7047000042
:102530000148FEF7D0BF00007C000020F0B5026823
:10254000164B174C174D4FF08047984205D0B842B4
:1025500003D0A04201D0A84203D122F070064A68FD
:102560003243984205D0B84203D0A04201D0A842DD
:1025700003D122F44074CA6822434C6922F08002DD
:10258000224302608A68C2620A688262984201D16C
:102590000969016301214161F0BD0000002C014087
:1025A000000400400008004010B501F01F030121A5
:1025B000046A99408C430462016A9A4011430162A3
:1025C00010BD000030B5036A026A22F00102026207
:1025D0004268846924F073050C682C4323F00205DB
:1025E0008B682B430A4DA8420BD123F00805CB681A
:1025F00022F440722B434D6923F0040315438A698A
:102600002A434260846149684163036230BD00002F
:10261000002C014030B5026A036A23F01003036204
:10262000436884690D6824F4E64444EA05248D680F
:1026300022F0200242EA05120B4DA8420ED1CD68CD
:1026400022F0800242EA05124D6923F4406343EA16
:1026500085038D6922F0400243EA8503436084616B
:1026600049688163026230BD002C014030B5036AC5
:10267000026A22F4807202624268C46923F4007321
:1026800024F073050C682C438D6843EA05230C4D38
:10269000A8420ED1CD6823F4006343EA05234D69B7
:1026A00022F4405242EA05128D6923F4806342EA23
:1026B00005124260C4614968C163036230BD000015
:1026C000002C014030B5046A026A22F48052026292
:1026D0004268C3690D6823F4E64343EA05238D6825
:1026E00024F4005444EA0534064DA84204D14D694F
:1026F00022F4804242EA85124260C3614968016463
:10270000046230BD002C014070B5056A046A24F0F3
:102710000104046284690F4EB04208D0B0F1804FCA
:1027200005D00D4EB04202D00C4EB04203D124F081
:102730000304144301E044F001041A0724F0F004F8
:1027400044EA126225F00A0301F00A01194382618A
:10275000016270BD002C01400004004000080040F0
:1027600030B5046A056A25F010050562856925F40F
:10277000407545EA022222F470454FF6FF7202EAE4
:10278000033224F0A0032A43A02404EA01111943D0
:102790008261016230BD10B5406A0021C185C184EB
:1027A000FFF782F810BD01680C3151E8002F22F4C8
:1027B000907241E80023002BF5D10168143151E8F3
:1027C000002F22F0010241E80023002BF5D1016B1C
:1027D000012909D101680C3151E8002F22F01002C3
:1027E00041E80023002BF5D1202180F84210002180
:1027F0000163704708B590F84210222901D00220E9
:1028000008BD82684FF480539A4201D1016921B119
:10281000816A9A421BD04AB10AE00268816A526812
:10282000C2F308020A80816A891C08E0026972B159
:102830000268526802F07F020A70816A491C816254
:10284000C18D491E0904090CC18503D01BE0026833
:102850005268F1E70168CA6822F02002CA60016884
:10286000CA6822F48072CA6001684A6922F00102D3
:102870004A61202180F8421000214163026B012A45
:1028800003D0FFF7C9F9002008BD016301680C31CE
:1028900051E8002F22F0100241E80023002BF5D16F
:1028A00001680A68D20602D50A6849680091818DDC
:1028B000FEF7F9FFE7E7000070B50446006801691C
:1028C000E26821F44051114301612169A068084385
:1028D000616908432168CA6841F20C639A43024364
:1028E000CA6020684169A26921F4407111434161C5
:1028F0001E492068884202D1FEF702FA01E0FEF785
:10290000EFF900EBC00101EB001260686421800068
:10291000B2FBF0F3B3FBF1F36FF018067343B2FBB5
:10292000F0F5B2FBF0F605EB8305322303EB05155A
:10293000B5FBF1F5B6FBF1F605F0F00505EB061574
:10294000B2FBF0F6B2FBF0F0B0FBF1F06FF0180262
:10295000504306EB800003EB0010B0FBF1F0216860
:1029600000F00F002844886070BD0000003801406E
:1029700081628285C28500214164222180F8421053
:10298000016921B10168CA6842F48072CA600168B5
:102990004A6942F001024A610068C16841F02001C1
:1029A000C1600020704700000148FEF77FBF0000B3
:1029B0000C010020FEE7000001B584B00121642273
:1029C00004A88DE807000B46002278210248FDF795
:1029D0008BFF05B000BD00002800002001B584B0C9
:1029E0000121642204A88DE807000B4640227821CB
:1029F0000248FDF779FF05B000BD00002800002067
:102A0000014A024900F023B88D2A00082400002062
:102A10000907090E002804DB00F1E02080F800140B
:102A2000704700F00F0000F1E02080F8141D70479F
:102A300002E008C8121F08C1002AFAD17047704787
:102A4000002001E001C1121F002AFBD170472DE9CF
:102A5000F04116460F460446002503E03946B047CC
:102A6000641C6D1C20780028F8D12846BDE8F08150
:102A700010B50446FEF72EF90349B0FBF1F16143AE
:102A8000491EFDD210BD000000093D0004490A683E
:102A90005206FCD5024AC1B2121D116070470000F7
:102AA0000038014008B5FDF7EFFFFFF710FDFFF715
:102AB0004BFAFFF72BFBFFF7EFFAFFF797FAFFF759
:102AC000B5FA0C212348FEF789FE0122224923484A
:102AD000FFF794F800212248FEF742FCFFF754FB71
:102AE000FFF732FB10251F4E00271B4C40F6B8386D
:102AF0004FF47A79FFF79EFC6060FDF7CBFB02464E
:102B00000321042308460095FFF7F0FB022316A2D9
:102B100003212820FFF720FC6068B04208DA13A0E8
:102B2000FFF76EFF4046FDF70DFD14A0FFF768FFAD
:102B30006078012809D115A0FFF762FF4046FDF734
:102B400001FD18A0FFF75CFF67704846FDF7FAFC2F
:102B5000D0E70000C4000020000000200C0100208D
:102B60007C00002000002041434D0000C0ACBBF8B9
:102B7000CDB0D2D1B4F2BFAA0D0A0000C0ACBBF8F0
:102B8000CDB0D2D1B9D8B1D50D0A0000BFC9BBD8DC
:102B9000CAD5C0ACBBF8CDB0D2D1B4F2BFAA0D0A31
:102BA00000000000BFC9BBD8CAD5C0ACBBF8CDB0CF
:102BB000D2D1B9D8B1D50D0A0000000002460120DB
:102BC00000E05043491EC9B2FBD27047000000002C
:102BD00000000000002F00000000070007000014A4
:102BE0007F147F1400242A7F2A12006264081323B2
:102BF00000364955225000000503000000001C2249
:102C00004100000041221C000014083E0814000886
:102C1000083E0808000000A0600000080808080836
:102C2000000060600000002010080402003E5149CE
:102C3000453E0000427F400000426151494600216C
:102C400041454B31001814127F1000274545453986
:102C5000003C4A49493000017109050300364949E1
:102C6000493600064949291E00003636000000009A
:102C700056360000000814224100001414141414E5
:102C8000000041221408000201510906003249598E
:102C9000513E007C1211127C007F49494936003EAA
:102CA00041414122007F4141221C007F4949494165
:102CB000007F09090901003E4149497A007F08085F
:102CC000087F0000417F4100002040413F01007F1C
:102CD00008142241007F40404040007F020C027FE8
:102CE000007F0408107F003E4141413E007F0909FA
:102CF0000906003E4151215E007F09192946004620
:102D0000494949310001017F0101003F4040403FF6
:102D1000001F2040201F003F4038403F0063140840
:102D2000146300070870080700615149454300001B
:102D30007F41410000552A552A55000041417F003E
:102D40000004020102040040404040400000010233
:102D50000400002054545478007F4844443800381C
:102D60004444442000384444487F003854545418A4
:102D700000087E0901020018A4A4A47C007F0804B6
:102D800004780000447D4000004080847D00007F86
:102D9000102844000000417F4000007C04180478A3
:102DA000007C0804047800384444443800FC24249F
:102DB00024180018242418FC007C08040408004887
:102DC0005454542000043F444020003C4040207CA8
:102DD000001C2040201C003C4030403C0044281097
:102DE0002844001CA0A0A07C004464544C4414144B
:102DF0001414141400000000000000000000000083
:102E000000000000000000F8000000000000003397
:102E10003000000000100C06100C0600000000003E
:102E20000000000040C07840C0784000043F040427
:102E30003F040400007088FC08300000001820FFE8
:102E4000211E0000F008F000E018000000211C0323
:102E50001E211E0000F00888700000001E2123249F
:102E60001927211010160E000000000000000000BD
:102E700000000000000000E018040200000000074D
:102E80001820400000020418E00000000040201854
:102E900007000000404080F0804040000202010F27
:102EA00001020200000000F0000000000101011F0B
:102EB00001010100000000000000000080B070006F
:102EC00000000000000000000000000000010101FF
:102ED000010101010000000000000000003030008E
:102EE0000000000000000000806018040060180668
:102EF0000100000000E010080810E000000F1020A2
:102F000020100F00001010F8000000000020203FEB
:102F10002020000000700808088870000030282475
:102F20002221300000300888884830000018202016
:102F300020110E000000C02010F80000000704243B
:102F4000243F240000F80888880808000019212080
:102F500020110E0000E0108888180000000F1120DA
:102F600020110E0000380808C83808000000003F93
:102F7000000000000070880808887000001C2221F2
:102F800021221C0000E010080810E000000031229F
:102F900022110F00000000C0C0000000000000303F
:102FA0003000000000000080000000000000806091
:102FB0000000000000008040201008000001020412
:102FC00008102000404040404040400004040404F9
:102FD00004040400000810204080000000201008B5
:102FE00004020100007048080808F00000000030EA
:102FF00036010000C030C828E810E0000718272478
:1030000023140B000000C038E0000000203C230225
:103010000227382008F8888888700000203F202088
:1030200020110E00C03008080808380007182020BA
:103030002010080008F808080810E000203F2020B1
:1030400020100F0008F88888E8081000203F202092
:103050002320180008F88888E8081000203F200086
:1030600003000000C03008080838000007182020BE
:10307000221E020008F808000008F808203F21017D
:1030800001213F20000808F8080800000020203F28
:103090002020000000000808F8080800C080808098
:1030A0007F00000008F888C028180800203F200191
:1030B0002638200008F8080000000000203F2020EB
:1030C0002020300008F8F800F8F80800203F003F02
:1030D000003F200008F830C00008F808203F20001A
:1030E00007183F00E01008080810E0000F1020202B
:1030F00020100F0008F808080808F000203F210100
:1031000001010000E01008080810E0000F18242456
:1031100038504F0008F8888888887000203F2000C9
:10312000030C30200070880808083800003820217F
:1031300021221C00180808F8080818000000203F89
:103140002000000008F808000008F808001F2020F0
:1031500020201F000878880000C8380800000738C1
:103160000E010000F80800F80008F800033C070012
:10317000073C0300081868808068180820302C037A
:10318000032C30200838C800C83808000000203F51
:103190002000000010080808C83808002038262140
:1031A00020201800000000FE020202000000007F44
:1031B00040404000000C30C0000000000000000152
:1031C0000638C00000020202FE000000004040403D
:1031D0007F00000000000402020204000000000062
:1031E00000000000000000000000000080808080DF
:1031F00080808080000202040000000000000000C7
:10320000000000000000808080800000001924225F
:1032100022223F2008F8008080000000003F11209B
:1032200020110E000000008080800000000E1120A0
:1032300020201100000000808088F800000E11207E
:1032400020103F200000808080800000001F22228C
:1032500022221300008080F0888888180020203FF8
:10326000202000000000808080808000006B94940B
:103270009493600008F8008080800000203F2100C7
:1032800000203F2000809898000000000020203F90
:1032900020200000000000809898000000C080807E
:1032A000807F000008F8000080808000203F24021A
:1032B0002D302000000808F8000000000020203F0A
:1032C000202000008080808080808000203F2000BF
:1032D0003F20003F8080008080800000203F210050
:1032E00000203F200000808080800000001F202000
:1032F00020201F00808000808000000080FFA1202F
:1033000020110E000000008080808000000E11203F
:1033100020A0FF80808080008080800020203F21CE
:103320002000010000008080808080000033242481
:1033300024241900008080E0808000000000001F2D
:10334000202000008080000000808000001F2020DE
:1033500020103F20808080000080808000010E309F
:103360000806010080800080008080800F300C0300
:103370000C300F0000808000808080000020312E03
:103380000E312000808080000080808080818E70DF
:103390001806010000808080808080000021302C91
:1033A0002221300000000000807C020200000000AA
:1033B000003F404000000000FF000000000000004F
:1033C000FF0000000002027C800000000040403F3F
:1033D00000000000000601010202040400000000D9
:1033E00000000000010202030405060708090A0B99
:1033F0000C0D0E0F10100000000000000000010274
:10340000030406070809000000000102030400008D
:10341000303400080000002028000000302A000896
:10342000583400082800002038050000402A000811
:10343000000000000000000000000000000000008C
:10344000000000000100000010000000000000006B
:083450000024F400000000005C
:04000005080000ED02
:00000001FF
